{
  "txid": "d40325b9cfb096a6d02f36ce41e9d7b9bf16171842fa70a3cfc494f9f4242ddd",
  "hash": "2a5fafca7da26e373e3f211970df40a3f29c419498885b24cb05a66eedc01b9c",
  "version": 2,
  "size": 221,
  "vsize": 140,
  "weight": 560,
  "locktime": 2420535,
  "vin": [
    {
      "txid": "c0622b8f477b7829e482ba5d9c78998478d940022944155cb04f41ecc79e594a",
      "vout": 0,
      "scriptSig": {
        "asm": "",
        "hex": ""
      },
      "txinwitness": [
        "3043021f0200796fdccdafab0293d5008c2ed3242bb4a0744fb84708a189d61edd70ee02205381dfa07122cbfe11d8db32907af186cf96c836af2b7911a2b6aa28aebf155301",
        "0391752d2b6b3e0a82d6dc9d64ba4f01832b6f688fbcedea11fa54ecd83d7f99d4"
      ],
      "sequence": 4294967294
    }
  ],
  "vout": [
    {
      "value": 0.01170212,
      "n": 0,
      "scriptPubKey": {
        "asm": "0 fa876a75969a9caa5716a540077f7545188f6dfc",
        "hex": "0014fa876a75969a9caa5716a540077f7545188f6dfc",
        "address": "tb1ql2rk5avkn2w254ck54qqwlm4g5vg7m0ug9h3sz",
        "type": "witness_v0_keyhash"
      }
    },
    {
      "value": 79.4960238,
      "n": 1,
      "scriptPubKey": {
        "asm": "0 ab323d33b7abc3fecb434e0bf2accf9c7e31736c",
        "hex": "0014ab323d33b7abc3fecb434e0bf2accf9c7e31736c",
        "address": "tb1q4ver6vah40plaj6rfc9l9tx0n3lrzumvfwa43u",
        "type": "witness_v0_keyhash"
      }
    }
  ],
  "hex": "020000000001014a599ec7ec414fb05c1544290240d9788499789c5dba82e429787b478f2b62c00000000000feffffff0224db110000000000160014fa876a75969a9caa5716a540077f7545188f6dfc4c4ed5d901000000160014ab323d33b7abc3fecb434e0bf2accf9c7e31736c02463043021f0200796fdccdafab0293d5008c2ed3242bb4a0744fb84708a189d61edd70ee02205381dfa07122cbfe11d8db32907af186cf96c836af2b7911a2b6aa28aebf155301210391752d2b6b3e0a82d6dc9d64ba4f01832b6f688fbcedea11fa54ecd83d7f99d437ef2400"
}
