{
  "result": {
    "txid": "d61c7cda6057c828a1a54e3dd8002e8a529c19201837bd036a8201df77813b14",
    "hash": "5ecbc19f73f61aaa89c3f0379f54c23dad6915b2817bce797eaa4484d84e8a62",
    "version": 2,
    "size": 370,
    "vsize": 208,
    "weight": 832,
    "locktime": 2416586,
    "vin": [
      {
        "txid": "957cea341fc008af476c8d224e10c767594625962f4d8fcc3d46e6dfe6ce21f4",
        "vout": 0,
        "scriptSig": {
          "asm": "",
          "hex": ""
        },
        "txinwitness": [
          "304402202bdef0b5da94d35da3a3ead7e8f1a1d1fe7908006dc47895f229ded1888d41f20220125b04d6fb6ebfb48896a5f7aa98ce0a522c8df91b076560223764a7976b882c01",
          "028ec616d49bee6c38c1c3779022e171f53b7306dd98f5d78af4e824299faedcd8"
        ],
        "sequence": 4294967294
      },
      {
        "txid": "5c7e5a769f987ca2d4cc7133ca4220dde11ea9b685ff7f5782bf5572458d46c6",
        "vout": 1,
        "scriptSig": {
          "asm": "",
          "hex": ""
        },
        "txinwitness": [
          "304402204cfb40ba09494eeb0095c9519711659c1b8497f3603ed4950ec638bd441a3c6e022010b5fe28ed613e2c71c80bf72df73f0781828c94f33feddb81c0382c8d5c784f01",
          "032989a75dc1b88147297c67b33a558cb7550bfbedd84b04c0fe89b68daaf52605"
        ],
        "sequence": 4294967294
      }
    ],
    "vout": [
      {
        "value": 0.00015878,
        "n": 0,
        "scriptPubKey": {
          "asm": "0 038fb7532da3a7d683600ed79923cbf7a3bf3b47",
          "hex": "0014038fb7532da3a7d683600ed79923cbf7a3bf3b47",
          "address": "tb1qqw8mw5ed5wnadqmqpmtejg7t773m7w68hyh2l6",
          "type": "witness_v0_keyhash"
        }
      },
      {
        "value": 0.02733885,
        "n": 1,
        "scriptPubKey": {
          "asm": "0 8ebfc405fcfeadea3c877d0e94d7e6b8ad9e89a4",
          "hex": "00148ebfc405fcfeadea3c877d0e94d7e6b8ad9e89a4",
          "address": "tb1q36lugp0ul6k750y8058ff4lxhzkeazdy6men6n",
          "type": "witness_v0_keyhash"
        }
      }
    ],
    "hex": "02000000000102f421cee6dfe6463dcc8f4d2f9625465967c7104e228d6c47af08c01f34ea7c950000000000feffffffc6468d457255bf82577fff85b6a91ee1dd2042ca3371ccd4a27c989f765a7e5c0100000000feffffff02063e000000000000160014038fb7532da3a7d683600ed79923cbf7a3bf3b473db72900000000001600148ebfc405fcfeadea3c877d0e94d7e6b8ad9e89a40247304402202bdef0b5da94d35da3a3ead7e8f1a1d1fe7908006dc47895f229ded1888d41f20220125b04d6fb6ebfb48896a5f7aa98ce0a522c8df91b076560223764a7976b882c0121028ec616d49bee6c38c1c3779022e171f53b7306dd98f5d78af4e824299faedcd80247304402204cfb40ba09494eeb0095c9519711659c1b8497f3603ed4950ec638bd441a3c6e022010b5fe28ed613e2c71c80bf72df73f0781828c94f33feddb81c0382c8d5c784f0121032989a75dc1b88147297c67b33a558cb7550bfbedd84b04c0fe89b68daaf52605cadf2400",
    "blockhash": "000000000000002321dac244115df543363a224e98be50d06acee1c3a4f06c82",
    "confirmations": 2202,
    "time": 1673864526,
    "blocktime": 1673864526
  },
  "error": null,
  "id": "curltest"
}
